:100000000C9435000C94FF010C94D8010C945D0005
:100010000C945D000C945D000C947E020C945D00C9
:100020000C945D000C945D000C945D000C945D00DC
:100030000C945D000C945D000C945D000C945D00CC
:100040000C948E010C945D000C944C020C942602CE
:100050000C945D000C945D000C945D000C945D00AC
:100060000C945D000C945D00880211241FBECFEF3C
:10007000D8E0DEBFCDBF22E0A0E6B1E001C01D9216
:10008000A834B207E1F711E0A0E0B1E0EEE0F7E05C
:1000900002C005900D92A036B107D9F710E0C5E374
:1000A000D0E004C02197FE010E947A03C433D10737
:1000B000C9F70E94DA020C9485030C94000008959D
:1000C000CF92DF92EF92FF920F931F93CF93DF9324
:1000D0006C017A018B01C0E0D0E0CE15DF0589F01C
:1000E000D8016D918D01D601ED91FC910190F081C7
:1000F000E02DC6010995892B11F47E0102C02196DD
:10010000ECCFC701DF91CF911F910F91FF90EF903E
:10011000DF90CF900895089580E090E00895FC016D
:10012000538D448D252F30E0842F90E0821B930B5C
:10013000541710F0CF96089501970895FC01918D02
:10014000828D981761F0828DDF01A80FB11D5D9639
:100150008C91928D9F5F9F73928F90E008958FEFA7
:100160009FEF0895FC01918D828D981731F0828D5B
:10017000E80FF11D858D90E008958FEF9FEF0895B2
:10018000FC01918D228D892F90E0805C9F4F821B16
:1001900091098F739927089589E691E00E94C00024
:1001A00021E0892B09F420E0822F0895FC01848D41
:1001B000DF01A80FB11DA35ABF4F2C91848D90E091
:1001C00001968F739927848FA689B7892C93A0896C
:1001D000B1898C9180648C93938D848D981306C023
:1001E0000288F389E02D80818F7D80830895EF92CE
:1001F000FF920F931F93CF93DF93EC0181E0888FE1
:100200009B8D8C8D981305C0E889F989808185FDC7
:1002100024C0F62E0B8D10E00F5F1F4F0F731127B8
:10022000E02E8C8DE8120CC00FB607FCFACFE889DF
:10023000F989808185FFF5CFCE010E94D600F1CFEC
:100240008B8DFE01E80FF11DE35AFF4FF0820B8FFB
:10025000EA89FB898081806207C0EE89FF8960831B
:10026000E889F98980818064808381E090E0DF9172
:10027000CF911F910F91FF90EF900895CF93DF934F
:10028000EC01888D8823C9F0EA89FB89808185FD8E
:1002900005C0A889B9898C9186FD0FC00FB607FCEF
:1002A000F5CF808185FFF2CFA889B9898C9185FF30
:1002B000EDCFCE010E94D600E7CFDF91CF91089518
:1002C00080E090E0892B29F00E94CC0081110C94F1
:1002D00000000895CF93DF93009779F0FC0101901F
:1002E0000020E9F73197AF01481B590BBC0189E6A3
:1002F00091E00E946000EC0102C0C0E0D0E042E06A
:1003000050E069E171E089E691E00E9460008C0FA5
:100310009D1FDF91CF9108950E9480031F920F923D
:100320000FB60F9211242F933F938F939F93AF9308
:10033000BF938091650190916601A0916701B09192
:1003400068013091640123E0230F2D3720F40196DA
:10035000A11DB11D05C026E8230F0296A11DB11DE8
:10036000209364018093650190936601A0936701D7
:10037000B09368018091600190916101A091620148
:10038000B09163010196A11DB11D8093600190930E
:100390006101A0936201B0936301BF91AF919F91FE
:1003A0008F913F912F910F900FBE0F901F90189536
:1003B0001F920F920FB60F9211242F933F934F93DA
:1003C0005F936F937F938F939F93AF93BF93EF93BD
:1003D000FF93E0910501F09106010995FF91EF91DE
:1003E000BF91AF919F918F917F916F915F914F914D
:1003F0003F912F910F900FBE0F901F9018951F9255
:100400000F920FB60F9211242F933F934F935F9348
:100410006F937F938F939F93AF93BF93EF93FF93CC
:10042000E0910301F09104010995FF91EF91BF91D3
:10043000AF919F918F917F916F915F914F913F917C
:100440002F910F900FBE0F901F9018951F920F9233
:100450000FB60F9211242F933F934F935F936F9397
:100460007F938F939F93AF93BF93EF93FF9389E60F
:1004700091E00E94D600FF91EF91BF91AF919F91C3
:100480008F917F916F915F914F913F912F910F903D
:100490000FBE0F901F9018951F920F920FB60F92DC
:1004A00011242F938F939F93EF93FF93E091790102
:1004B000F0917A018081E0917F01F091800182FDCD
:1004C00012C09081809182018F5F8F732091830190
:1004D000821751F0E0918201F0E0E759FE4F958FCD
:1004E0008093820101C08081FF91EF919F918F9154
:1004F0002F910F900FBE0F901F9018951F920F9283
:100500000FB60F9211240F900FBE0F901F901895E9
:10051000CF93DF93E9E6F1E01382128288EE93E055
:10052000A0E0B0E084839583A683B7838BE091E05D
:100530009183808385EC90E09587848784EC90E0BC
:100540009787868780EC90E0918B808B81EC90E0A0
:10055000938B828B82EC90E0958B848B86EC90E081
:10056000978B868B118E128E138E148EE7E2F2E03B
:100570001082118212821482158216829AE1AEE2F2
:10058000B2E0ED01892F19928A95E9F782E0838321
:10059000E6E0F2E010821182128214821582168245
:1005A000ADE0B2E0ED0119929A95E9F78383DF910E
:1005B000CF910895789484B5826084BD84B58160BC
:1005C00084BD85B5826085BD85B5816085BD80911E
:1005D0006E00816080936E00109281008091810096
:1005E000826080938100809181008160809381008E
:1005F000809180008160809380008091B100846050
:100600008093B1008091B00081608093B0008091B0
:100610007A00846080937A0080917A00826080936F
:100620007A0080917A00816080937A0080917A00CC
:10063000806880937A001092C100E0917901F09176
:100640007A0182E08083E0917501F0917601108259
:10065000E0917701F091780180E18083109281012F
:10066000E0917D01F0917E0186E08083E0917B0145
:10067000F0917C01808180618083E0917B01F09129
:100680007C01808188608083E0917B01F0917C0116
:10069000808180688083E0917B01F0917C01808182
:1006A0008F7D80838CE191E00E946A01C0E0D0E000
:1006B0006FEFCE010E9468032196CD3981E0D80703
:1006C000B9F78DE391E00E946A010E946001FDCFBD
:1006D000262FF999FECF92BD81BDF89A019700B4FB
:1006E000021639F01FBA20BD0FB6F894FA9AF99A9B
:1006F0000FBE0895EE0FFF1F0590F491E02D0994B1
:0E07000081E090E0F8940C948503F894FFCF0C
:10070E00FFFFFF5F005F0000000000F70060008F3A
:10071E00003E01C0009E00B2000D0A0053746172CB
:10072E0074656420636C656172696E672E20506C0F
:10073E006561736520776169742E2E2E00436C659A
:10074E006172696E6720646F6E652E20596F752712
:10075E00726520726561647920746F20676F210065
:00000001FF
